{
  "contractName": "MasterLegendRule",
  "abi": [
    {
      "inputs": [],
      "stateMutability": "nonpayable",
      "type": "constructor"
    },
    {
      "anonymous": false,
      "inputs": [
        {
          "indexed": true,
          "internalType": "address",
          "name": "previousOwner",
          "type": "address"
        },
        {
          "indexed": true,
          "internalType": "address",
          "name": "newOwner",
          "type": "address"
        }
      ],
      "name": "OwnershipTransferred",
      "type": "event"
    },
    {
      "anonymous": false,
      "inputs": [
        {
          "indexed": false,
          "internalType": "address",
          "name": "",
          "type": "address"
        },
        {
          "indexed": false,
          "internalType": "uint256",
          "name": "",
          "type": "uint256"
        }
      ],
      "name": "Received",
      "type": "event"
    },
    {
      "inputs": [],
      "name": "MOLTokenContract",
      "outputs": [
        {
          "internalType": "contract ERC20",
          "name": "",
          "type": "address"
        }
      ],
      "stateMutability": "view",
      "type": "function",
      "constant": true
    },
    {
      "inputs": [],
      "name": "owner",
      "outputs": [
        {
          "internalType": "address",
          "name": "",
          "type": "address"
        }
      ],
      "stateMutability": "view",
      "type": "function",
      "constant": true
    },
    {
      "inputs": [],
      "name": "renounceOwnership",
      "outputs": [],
      "stateMutability": "nonpayable",
      "type": "function"
    },
    {
      "inputs": [
        {
          "internalType": "address",
          "name": "newOwner",
          "type": "address"
        }
      ],
      "name": "transferOwnership",
      "outputs": [],
      "stateMutability": "nonpayable",
      "type": "function"
    },
    {
      "stateMutability": "payable",
      "type": "receive",
      "payable": true
    },
    {
      "inputs": [
        {
          "internalType": "address",
          "name": "_tokenContractAddress",
          "type": "address"
        }
      ],
      "name": "setTokenContractAddress",
      "outputs": [],
      "stateMutability": "nonpayable",
      "type": "function"
    },
    {
      "inputs": [
        {
          "internalType": "uint256",
          "name": "_dailyRewardCount",
          "type": "uint256"
        }
      ],
      "name": "setDailyRewardCount",
      "outputs": [],
      "stateMutability": "nonpayable",
      "type": "function"
    },
    {
      "inputs": [],
      "name": "getDailyRewardCount",
      "outputs": [
        {
          "internalType": "uint256",
          "name": "",
          "type": "uint256"
        }
      ],
      "stateMutability": "view",
      "type": "function",
      "constant": true
    },
    {
      "inputs": [],
      "name": "getContractBalance",
      "outputs": [
        {
          "internalType": "uint256",
          "name": "",
          "type": "uint256"
        }
      ],
      "stateMutability": "view",
      "type": "function",
      "constant": true
    },
    {
      "inputs": [
        {
          "internalType": "uint256",
          "name": "amount",
          "type": "uint256"
        }
      ],
      "name": "withdrawToken",
      "outputs": [
        {
          "internalType": "uint256",
          "name": "",
          "type": "uint256"
        }
      ],
      "stateMutability": "nonpayable",
      "type": "function"
    },
    {
      "inputs": [],
      "name": "requestDailyReward",
      "outputs": [
        {
          "internalType": "uint256",
          "name": "",
          "type": "uint256"
        }
      ],
      "stateMutability": "nonpayable",
      "type": "function"
    },
    {
      "inputs": [
        {
          "internalType": "address",
          "name": "userAddress",
          "type": "address"
        }
      ],
      "name": "getLastReceiveRewardTime",
      "outputs": [
        {
          "internalType": "uint256",
          "name": "",
          "type": "uint256"
        }
      ],
      "stateMutability": "view",
      "type": "function",
      "constant": true
    },
    {
      "inputs": [],
      "name": "getCurrentTimeStamp",
      "outputs": [
        {
          "internalType": "uint256",
          "name": "",
          "type": "uint256"
        }
      ],
      "stateMutability": "view",
      "type": "function",
      "constant": true
    },
    {
      "inputs": [
        {
          "internalType": "address",
          "name": "userAddress",
          "type": "address"
        }
      ],
      "name": "CheckCanReceiveReward",
      "outputs": [
        {
          "internalType": "uint256",
          "name": "",
          "type": "uint256"
        }
      ],
      "stateMutability": "view",
      "type": "function",
      "constant": true
    }
  ],
  "bytecode": "0x608060405234801561001057600080fd5b5061002d61002261005760201b60201c565b61005f60201b60201c565b6000600260146101000a81548160ff021916908315150217905550620f4240600381905550610123565b600033905090565b60008060009054906101000a900473ffffffffffffffffffffffffffffffffffffffff169050816000806101000a81548173ffffffffffffffffffffffffffffffffffffffff021916908373ffffffffffffffffffffffffffffffffffffffff1602179055508173ffffffffffffffffffffffffffffffffffffffff168173ffffffffffffffffffffffffffffffffffffffff167f8be0079c531659141344cd1fd0a4f28419497f9722a3daafe3b4186f6b6457e060405160405180910390a35050565b6113f1806101326000396000f3fe6080604052600436106100c65760003560e01c8063715018a61161007f5780638da5cb5b116100595780638da5cb5b146102b0578063afbf7125146102db578063b23d485414610304578063f2fde38b1461032d57610106565b8063715018a61461023157806378addea9146102485780637e5e219c1461028557610106565b80632436ea3e1461010b578063430a9ce21461013657806350baa622146101615780636526fbc71461019e5780636b0d2c1c146101db5780636f9fb98a1461020657610106565b36610106577f88a5966d370b9919b20f3e2c13ff65706f196a4e32cc2c12bf57088f8852587433346040516100fc929190610e82565b60405180910390a1005b600080fd5b34801561011757600080fd5b50610120610356565b60405161012d9190610eab565b60405180910390f35b34801561014257600080fd5b5061014b610619565b6040516101589190610f25565b60405180910390f35b34801561016d57600080fd5b5061018860048036038101906101839190610f71565b61063f565b6040516101959190610eab565b60405180910390f35b3480156101aa57600080fd5b506101c560048036038101906101c09190610fca565b6107d0565b6040516101d29190610eab565b60405180910390f35b3480156101e757600080fd5b506101f0610819565b6040516101fd9190610eab565b60405180910390f35b34801561021257600080fd5b5061021b610823565b6040516102289190610eab565b60405180910390f35b34801561023d57600080fd5b50610246610998565b005b34801561025457600080fd5b5061026f600480360381019061026a9190610fca565b610a20565b60405161027c9190610eab565b60405180910390f35b34801561029157600080fd5b5061029a610ad3565b6040516102a79190610eab565b60405180910390f35b3480156102bc57600080fd5b506102c5610adb565b6040516102d29190610ff7565b60405180910390f35b3480156102e757600080fd5b5061030260048036038101906102fd9190610f71565b610b04565b005b34801561031057600080fd5b5061032b60048036038101906103269190610fca565b610b8a565b005b34801561033957600080fd5b50610354600480360381019061034f9190610fca565b610c65565b005b600060011515600260149054906101000a900460ff161515146103ae576040517f08c379a00000000000000000000000000000000000000000000000000000000081526004016103a590611095565b60405180910390fd5b600354600260009054906101000a900473ffffffffffffffffffffffffffffffffffffffff1673ffffffffffffffffffffffffffffffffffffffff166370a08231306040518263ffffffff1660e01b815260040161040c9190610ff7565b602060405180830381865afa158015610429573d6000803e3d6000fd5b505050506040513d601f19601f8201168201806040525081019061044d91906110ca565b1161048d576040517f08c379a000000000000000000000000000000000000000000000000000000000815260040161048490611143565b60405180910390fd5b620151806001600061049d610d5c565b73ffffffffffffffffffffffffffffffffffffffff1673ffffffffffffffffffffffffffffffffffffffff16815260200190815260200160002054426104e39190611192565b11610523576040517f08c379a000000000000000000000000000000000000000000000000000000000815260040161051a90611238565b60405180910390fd5b600260009054906101000a900473ffffffffffffffffffffffffffffffffffffffff1673ffffffffffffffffffffffffffffffffffffffff1663a9059cbb336003546040518363ffffffff1660e01b8152600401610582929190610e82565b6020604051808303816000875af11580156105a1573d6000803e3d6000fd5b505050506040513d601f19601f820116820180604052508101906105c59190611290565b5042600160006105d3610d5c565b73ffffffffffffffffffffffffffffffffffffffff1673ffffffffffffffffffffffffffffffffffffffff16815260200190815260200160002081905550600354905090565b600260009054906101000a900473ffffffffffffffffffffffffffffffffffffffff1681565b6000610649610d5c565b73ffffffffffffffffffffffffffffffffffffffff16610667610adb565b73ffffffffffffffffffffffffffffffffffffffff16146106bd576040517f08c379a00000000000000000000000000000000000000000000000000000000081526004016106b490611309565b60405180910390fd5b60011515600260149054906101000a900460ff16151514610713576040517f08c379a000000000000000000000000000000000000000000000000000000000815260040161070a90611095565b60405180910390fd5b60011515600260009054906101000a900473ffffffffffffffffffffffffffffffffffffffff1673ffffffffffffffffffffffffffffffffffffffff1663a9059cbb33856040518363ffffffff1660e01b8152600401610774929190610e82565b6020604051808303816000875af1158015610793573d6000803e3d6000fd5b505050506040513d601f19601f820116820180604052508101906107b79190611290565b1515036107c6578190506107cb565b600090505b919050565b6000600160008373ffffffffffffffffffffffffffffffffffffffff1673ffffffffffffffffffffffffffffffffffffffff168152602001908152602001600020549050919050565b6000600354905090565b600061082d610d5c565b73ffffffffffffffffffffffffffffffffffffffff1661084b610adb565b73ffffffffffffffffffffffffffffffffffffffff16146108a1576040517f08c379a000000000000000000000000000000000000000000000000000000000815260040161089890611309565b60405180910390fd5b60011515600260149054906101000a900460ff161515146108f7576040517f08c379a00000000000000000000000000000000000000000000000000000000081526004016108ee90611095565b60405180910390fd5b600260009054906101000a900473ffffffffffffffffffffffffffffffffffffffff1673ffffffffffffffffffffffffffffffffffffffff166370a08231306040518263ffffffff1660e01b81526004016109529190610ff7565b602060405180830381865afa15801561096f573d6000803e3d6000fd5b505050506040513d601f19601f8201168201806040525081019061099391906110ca565b905090565b6109a0610d5c565b73ffffffffffffffffffffffffffffffffffffffff166109be610adb565b73ffffffffffffffffffffffffffffffffffffffff1614610a14576040517f08c379a0000000000000000000000000000000000000000000000000000000008152600401610a0b90611309565b60405180910390fd5b610a1e6000610d64565b565b600062015180600160008473ffffffffffffffffffffffffffffffffffffffff1673ffffffffffffffffffffffffffffffffffffffff1681526020019081526020016000205442610a719190611192565b1115610a805760009050610ace565b600160008373ffffffffffffffffffffffffffffffffffffffff1673ffffffffffffffffffffffffffffffffffffffff1681526020019081526020016000205442610acb9190611192565b90505b919050565b600042905090565b60008060009054906101000a900473ffffffffffffffffffffffffffffffffffffffff16905090565b610b0c610d5c565b73ffffffffffffffffffffffffffffffffffffffff16610b2a610adb565b73ffffffffffffffffffffffffffffffffffffffff1614610b80576040517f08c379a0000000000000000000000000000000000000000000000000000000008152600401610b7790611309565b60405180910390fd5b8060038190555050565b610b92610d5c565b73ffffffffffffffffffffffffffffffffffffffff16610bb0610adb565b73ffffffffffffffffffffffffffffffffffffffff1614610c06576040517f08c379a0000000000000000000000000000000000000000000000000000000008152600401610bfd90611309565b60405180910390fd5b80600260006101000a81548173ffffffffffffffffffffffffffffffffffffffff021916908373ffffffffffffffffffffffffffffffffffffffff1602179055506001600260146101000a81548160ff02191690831515021790555050565b610c6d610d5c565b73ffffffffffffffffffffffffffffffffffffffff16610c8b610adb565b73ffffffffffffffffffffffffffffffffffffffff1614610ce1576040517f08c379a0000000000000000000000000000000000000000000000000000000008152600401610cd890611309565b60405180910390fd5b600073ffffffffffffffffffffffffffffffffffffffff168173ffffffffffffffffffffffffffffffffffffffff1603610d50576040517f08c379a0000000000000000000000000000000000000000000000000000000008152600401610d479061139b565b60405180910390fd5b610d5981610d64565b50565b600033905090565b60008060009054906101000a900473ffffffffffffffffffffffffffffffffffffffff169050816000806101000a81548173ffffffffffffffffffffffffffffffffffffffff021916908373ffffffffffffffffffffffffffffffffffffffff1602179055508173ffffffffffffffffffffffffffffffffffffffff168173ffffffffffffffffffffffffffffffffffffffff167f8be0079c531659141344cd1fd0a4f28419497f9722a3daafe3b4186f6b6457e060405160405180910390a35050565b600073ffffffffffffffffffffffffffffffffffffffff82169050919050565b6000610e5382610e28565b9050919050565b610e6381610e48565b82525050565b6000819050919050565b610e7c81610e69565b82525050565b6000604082019050610e976000830185610e5a565b610ea46020830184610e73565b9392505050565b6000602082019050610ec06000830184610e73565b92915050565b6000819050919050565b6000610eeb610ee6610ee184610e28565b610ec6565b610e28565b9050919050565b6000610efd82610ed0565b9050919050565b6000610f0f82610ef2565b9050919050565b610f1f81610f04565b82525050565b6000602082019050610f3a6000830184610f16565b92915050565b600080fd5b610f4e81610e69565b8114610f5957600080fd5b50565b600081359050610f6b81610f45565b92915050565b600060208284031215610f8757610f86610f40565b5b6000610f9584828501610f5c565b91505092915050565b610fa781610e48565b8114610fb257600080fd5b50565b600081359050610fc481610f9e565b92915050565b600060208284031215610fe057610fdf610f40565b5b6000610fee84828501610fb5565b91505092915050565b600060208201905061100c6000830184610e5a565b92915050565b600082825260208201905092915050565b7f546f6b656e20436f6e74726163742041646472657373206d757374206265207360008201527f6574000000000000000000000000000000000000000000000000000000000000602082015250565b600061107f602283611012565b915061108a82611023565b604082019050919050565b600060208201905081810360008301526110ae81611072565b9050919050565b6000815190506110c481610f45565b92915050565b6000602082840312156110e0576110df610f40565b5b60006110ee848285016110b5565b91505092915050565b7f496e73756666696369656e74206f662062616c616e6365000000000000000000600082015250565b600061112d601783611012565b9150611138826110f7565b602082019050919050565b6000602082019050818103600083015261115c81611120565b9050919050565b7f4e487b7100000000000000000000000000000000000000000000000000000000600052601160045260246000fd5b600061119d82610e69565b91506111a883610e69565b9250828210156111bb576111ba611163565b5b828203905092915050565b7f596f752073686f756c64207761697420666f72206d6f726520746f207265636560008201527f69766520746865206e657874207265776172642e000000000000000000000000602082015250565b6000611222603483611012565b915061122d826111c6565b604082019050919050565b6000602082019050818103600083015261125181611215565b9050919050565b60008115159050919050565b61126d81611258565b811461127857600080fd5b50565b60008151905061128a81611264565b92915050565b6000602082840312156112a6576112a5610f40565b5b60006112b48482850161127b565b91505092915050565b7f4f776e61626c653a2063616c6c6572206973206e6f7420746865206f776e6572600082015250565b60006112f3602083611012565b91506112fe826112bd565b602082019050919050565b60006020820190508181036000830152611322816112e6565b9050919050565b7f4f776e61626c653a206e6577206f776e657220697320746865207a65726f206160008201527f6464726573730000000000000000000000000000000000000000000000000000602082015250565b6000611385602683611012565b915061139082611329565b604082019050919050565b600060208201905081810360008301526113b481611378565b905091905056fea26469706673582212205c93358e3c814f59685235578593fbf9324033f8fc844c51d33449649587fea864736f6c634300080d0033",
  "immutableReferences": {},
  "source": "// SPDX-License-Identifier: MIT\r\npragma solidity ^0.8.13; \r\n\r\nimport \"@openzeppelin/contracts/token/ERC20/ERC20.sol\"; \r\nimport \"@openzeppelin/contracts/access/Ownable.sol\"; \r\n\r\ncontract MasterLegendRule is Ownable{\r\n\r\n    mapping (address => uint256) UserLastReceiveDailyRewardTime;\r\n    ERC20 public MOLTokenContract;\r\n    bool TokenContractValid;\r\n    uint256 dailyRewardCount;\r\n\r\n    event Received(address, uint);\r\n    receive() external payable {\r\n        emit Received(msg.sender, msg.value);\r\n    }\r\n\r\n    constructor() Ownable(){\r\n        TokenContractValid = false;\r\n        dailyRewardCount = (uint256)(1000000);\r\n    }\r\n\r\n    function setTokenContractAddress(address _tokenContractAddress) public onlyOwner {\r\n        MOLTokenContract = ERC20(_tokenContractAddress);\r\n        TokenContractValid = true;\r\n    }\r\n    function setDailyRewardCount(uint256 _dailyRewardCount) public onlyOwner {\r\n        dailyRewardCount = _dailyRewardCount;\r\n    }\r\n    function getDailyRewardCount() public view returns(uint256) {\r\n        return dailyRewardCount;\r\n    }\r\n\r\n    function getContractBalance() public view onlyOwner returns (uint256) {\r\n        require(TokenContractValid == true , \"Token Contract Address must be set\");\r\n        return MOLTokenContract.balanceOf(address(this));\r\n    }\r\n\r\n    function withdrawToken(uint256 amount) public onlyOwner returns (uint256)\r\n    {\r\n        require(TokenContractValid == true , \"Token Contract Address must be set\");\r\n        if (MOLTokenContract.transfer(msg.sender, amount) == true){\r\n            return amount;\r\n        }\r\n        return 0;\r\n    }\r\n\r\n    function requestDailyReward() public returns (uint256)\r\n    {\r\n        require(TokenContractValid == true , \"Token Contract Address must be set\");\r\n        require(MOLTokenContract.balanceOf(address(this)) > dailyRewardCount , \"Insufficient of balance\");\r\n        require(block.timestamp - UserLastReceiveDailyRewardTime[_msgSender()] > 1 days , \"You should wait for more to receive the next reward.\");\r\n        \r\n        MOLTokenContract.transfer(msg.sender, dailyRewardCount);\r\n        UserLastReceiveDailyRewardTime[_msgSender()] = block.timestamp;\r\n\r\n        return dailyRewardCount;\r\n    }\r\n\r\n    function getLastReceiveRewardTime(address userAddress) public view returns (uint256)\r\n    {\r\n        return UserLastReceiveDailyRewardTime[userAddress];\r\n    }\r\n    function getCurrentTimeStamp() public view returns (uint256)\r\n    {\r\n        return block.timestamp;\r\n    }\r\n\r\n    function CheckCanReceiveReward(address userAddress) public view returns (uint256)\r\n    {\r\n        if (block.timestamp - UserLastReceiveDailyRewardTime[userAddress] > 1 days)\r\n        {\r\n            return 0;\r\n        }\r\n        else\r\n        {\r\n            return block.timestamp - UserLastReceiveDailyRewardTime[userAddress];\r\n        }\r\n    }\r\n\r\n}",
  "sourcePath": "G:\\UnityProject\\MasterLegend\\SmartContract\\contracts\\MasterLegendRule.sol",
  "compiler": {
    "name": "solc",
    "version": "0.8.13+commit.abaa5c0e.Emscripten.clang"
  },
  "schemaVersion": "3.4.7",
  "updatedAt": "2022-05-30T07:34:37.325Z",
  "networkType": "ethereum",
  "devdoc": {
    "kind": "dev",
    "methods": {
      "owner()": {
        "details": "Returns the address of the current owner."
      },
      "renounceOwnership()": {
        "details": "Leaves the contract without owner. It will not be possible to call `onlyOwner` functions anymore. Can only be called by the current owner. NOTE: Renouncing ownership will leave the contract without an owner, thereby removing any functionality that is only available to the owner."
      },
      "transferOwnership(address)": {
        "details": "Transfers ownership of the contract to a new account (`newOwner`). Can only be called by the current owner."
      }
    },
    "version": 1
  },
  "userdoc": {
    "kind": "user",
    "methods": {},
    "version": 1
  }
}